:020000040000FA
:100000000C9463000C948B000C948B000C94C00334
:100010000C94C0030C94C0030C948B000C948B00C4
:100020000C948B000C948B000C948B000C948B0024
:100030000C948B000C948B000C948B000C948B0014
:100040000C9476030C948B000C9444030C941E03C4
:100050000C948B000C948B000C948B000C948B00F4
:100060000C948B000C948B000000000024002700EF
:100070002A0000000008000201000003040700003D
:1000800000000000000000000000230026002900FE
:1000900000000000250028002B00040404040404D0
:1000A0000404020202020202030303030303010227
:1000B00004081020408001020408102001020408F6
:1000C00010206604B70611241FBECFEFD8E0DEBFB4
:1000D000CDBF11E0A0E0B1E0ECE1FEE002C0059090
:1000E0000D92A839B107D9F722E0A8E9B1E001C023
:1000F0001D92A13AB207E1F710E0C2E6D0E004C0D9
:100100002197FE010E94FB06C136D107C9F70E9464
:100110000F050C9401070C940000AF92BF92CF9290
:10012000DF92EF92FF920F931F93CF93DF936C01B7
:100130007B018B01040F151FEB015E01AE18BF0898
:10014000C017D10759F06991D601ED91FC9101904A
:10015000F081E02DC6010995892B79F7C501DF9162
:10016000CF911F910F91FF90EF90DF90CF90BF90B4
:10017000AF900895FC01538D448D252F30E0842FDE
:1001800090E0821B930B541710F0CF9608950197BF
:100190000895FC01918D828D981761F0A28DAE0FAC
:1001A000BF2FB11D5D968C91928D9F5F9F73928F33
:1001B00090E008958FEF9FEF0895FC01918D828D5F
:1001C000981731F0828DE80FF11D858D90E008952C
:1001D0008FEF9FEF0895FC01918D228D892F90E084
:1001E000805C9F4F821B91098F739927089585EE3C
:1001F00091E00E94EB0021E0892B09F420E0822F9E
:10020000089580E090E0892B29F00E94F700811189
:100210000C9400000895FC01A48DA80FB92FB11D06
:10022000A35ABF4F2C91848D90E001968F7399272C
:10023000848FA689B7892C93A089B1898C9183700A
:1002400080648C93938D848D981306C00288F38903
:10025000E02D80818F7D80830895EF92FF920F9330
:100260001F93CF93DF93EC0181E0888F9B8D8C8D62
:1002700098131AC0E889F989808185FF15C09FB756
:10028000F894EE89FF896083E889F9898081837019
:10029000806480839FBF81E090E0DF91CF911F91C8
:1002A0000F91FF90EF900895F62E0B8D10E00F5FE9
:1002B0001F4F0F731127E02E8C8D8E110CC00FB6BF
:1002C00007FCFACFE889F989808185FFF5CFCE0157
:1002D0000E940B01F1CFEB8DEC0FFD2FF11DE35AC6
:1002E000FF4FF0829FB7F8940B8FEA89FB898081DA
:1002F0008062CFCFCF93DF93EC01888D8823B9F054
:10030000AA89BB89E889F9898C9185FD03C0808120
:1003100086FD0DC00FB607FCF7CF8C9185FFF2CF9D
:10032000808185FFEDCFCE010E940B01E9CFDF91E7
:10033000CF910895833081F028F4813099F0823094
:10034000A9F008958730A9F08830C9F08430B1F45D
:10035000809180008F7D03C0809180008F77809393
:100360008000089584B58F7784BD089584B58F7D0E
:10037000FBCF8091B0008F778093B000089580917B
:10038000B0008F7DF9CFCF93DF9390E0FC01E25571
:10039000FF4F249186569F4FFC0184918823D1F012
:1003A00090E0880F991FFC01E859FF4FA591B49187
:1003B000FC01E057FF4FC591D49161110EC09FB76A
:1003C000F8948C91E22FE0958E238C932881E22380
:1003D000E8839FBFDF91CF9108958FB7F894EC9198
:1003E000E22BEC938FBFF6CF3FB7F8948091DD01FD
:1003F0009091DE01A091DF01B091E00126B5A89BAC
:1004000005C02F3F19F00196A11DB11D3FBFBA2FA6
:10041000A92F982F8827BC01CD01620F711D811D66
:10042000911D42E0660F771F881F991F4A95D1F7EB
:1004300008958F929F92AF92BF92CF92DF92EF92E8
:10044000FF924B015C010E94F4016B017C010E9450
:10045000F4016C197D098E099F09683E734081057E
:100460009105A8F321E0821A9108A108B10888EE4D
:10047000C80E83E0D81EE11CF11C81149104A10474
:10048000B10429F7FF90EF90DF90CF90BF90AF902D
:100490009F908F9008952091E3013091E4012817F7
:1004A000390771F49091E1018091E201981741F0D0
:1004B000E091E101F0E0E856FE4F808190E0089580
:1004C0008FEF9FEF08950895EF92FF920F931F9380
:1004D000CF93DF93DC015C96ED90FC905D97E11487
:1004E000F10479F481E090E013969C938E93129737
:1004F00090E080E0DF91CF911F910F91FF90EF90FE
:1005000008955196ED91FC91529750968C91509789
:10051000982F90950FB75E962C915E97122F1270C0
:1005200021FD6095F8942081112319F1282B208357
:10053000E7012197F1F728E0462F50E0308160FF76
:100540001AC0382B3083E7012197F1F7BA0175956E
:100550006795215089F7112381F080818923808359
:100560000FBF5C968D919C910197F1F781E090E02F
:10057000C1CF2923DCCF3923E5CF9081892BEFCF61
:100580002091E3013091E4012817390771F480913B
:10059000E2012091E10190E0805C9F4F821B910974
:1005A00060E470E00E94D306089590E080E0089532
:1005B0002091E3013091E40128173907B9F49091B3
:1005C000E1018091E201981789F0E091E101F0E00A
:1005D000E856FE4F80812091E10130E02F5F3F4FD0
:1005E0002F7333272093E10190E008958FEF9FEF61
:1005F000089590E080E00895FB0101900020E9F764
:100600003197AF01461B570BDC01ED91FC91028045
:10061000F381E02D0994CF93DF93BC0185EE91E047
:100620000E94FC02EC0164E271E085EE91E00E9420
:10063000FC028C0F9D1FDF91CF9108951F920F92A6
:100640000FB60F9211242F933F934F935F936F93A5
:100650007F938F939F93AF93BF93EF93FF9385EE19
:1006600091E00E940B01FF91EF91BF91AF919F919B
:100670008F917F916F915F914F913F912F910F904B
:100680000FBE0F901F9018951F920F920FB60F92EA
:1006900011242F938F939F93EF93FF93E091F50194
:1006A000F091F6018081E091FB01F091FC0182FD67
:1006B0001BC090818091FE018F5F8F732091FF019D
:1006C000821741F0E091FE01F0E0EB51FE4F958F73
:1006D0008093FE01FF91EF919F918F912F910F9049
:1006E0000FBE0F901F9018958081F4CF1F920F922C
:1006F0000FB60F9211242F933F938F939F93AF9335
:10070000BF938091D9019091DA01A091DB01B09162
:10071000DC013091D80123E0230F2D3758F50196E5
:10072000A11DB11D2093D8018093D9019093DA01C6
:10073000A093DB01B093DC018091DD019091DE019B
:10074000A091DF01B091E0010196A11DB11D809340
:10075000DD019093DE01A093DF01B093E001BF9132
:10076000AF919F918F913F912F910F900FBE0F905E
:100770001F90189526E8230F0296A11DB11DD2CF18
:100780001F920F920FB60F9211242F933F934F9306
:100790005F936F937F938F939F93AF93BF93EF93E9
:1007A000FF93E091E301F091E401309749F0A685D1
:1007B000B7858585968D91FF14C09C918923A1F4FE
:1007C000FF91EF91BF91AF919F918F917F916F9129
:1007D0005F914F913F912F910F900FBE0F901F90FF
:1007E00018959C91892361F7A389B4899C91858987
:1007F000809589238C93868997890197F1F7608D7D
:10080000718DA685B785558538E020E0CB0101972D
:10081000F1F7822F90E095958795282F4C914523ED
:1008200009F02068315091F7868D81FD20958091E7
:10083000E20190E001968F7399273091E10138171A
:1008400099F0A091E201B0E0A856BE4F2C9380939E
:10085000E201828D938D0197F1F7A389B4898C9180
:100860009589892B8C93ACCF868D8160868FF1CF53
:100870001F93CF93DF93282F30E0F901EE58FF4FFD
:100880008491F901E255FF4FD491F901E656FF4FEB
:10089000C491CC23A9F0162F81110E949A01EC2F4C
:1008A000F0E0EE0FFF1FE057FF4FA591B4918FB717
:1008B000F894EC91111108C0D095DE23DC938FBF22
:1008C000DF91CF911F910895DE2BF8CF1092E801B0
:1008D0001092E70188EE93E0A0E0B0E08093E90198
:1008E0009093EA01A093EB01B093EC0124E031E096
:1008F0003093E6012093E50125EC30E03093F201DE
:100900002093F10124EC30E03093F4012093F301C3
:1009100020EC30E03093F6012093F50121EC30E03B
:100920003093F8012093F70122EC30E03093FA0184
:100930002093F90126EC30E03093FC012093FB0179
:100940001092FE011092FF0110920002109201021B
:1009500010928502109284028093860290938702FF
:10096000A0938802B093890286E191E0909383027C
:1009700080938202109299021092980210929B0228
:1009800010929A0210929D0210929C0210929F0265
:1009900010929E026091A0026E7F6D7F6093A00214
:1009A0006695617081E068270E94380461E081E00B
:1009B0000E94C301EFEAF0E0E491E0939202EBE9D8
:1009C000F0E0E491F0E0EE0FFF1FE057FF4F85915C
:1009D0009491909394028093930260E080E00E944F
:1009E000C3018091A00281FD04C061E080E00E940B
:1009F000380410928E02EEEAF0E0E491E0938F0268
:100A0000EAE9F0E0E491F0E0EE0FFF1FEA57FF4F54
:100A10008591949190939102809390020895789497
:100A200084B5826084BD84B5816084BD85B58260F3
:100A300085BD85B5816085BD80916E0081608093A4
:100A40006E0010928100809181008260809381000D
:100A5000809181008160809381008091800081601D
:100A6000809380008091B10084608093B100809178
:100A7000B00081608093B00080917A0084608093A0
:100A80007A0080917A00826080937A0080917A0067
:100A9000816080937A0080917A00806880937A00E8
:100AA0001092C10060E082E00E94C30110929D029A
:100AB00010929C0210929B0210929A02109299023C
:100AC000109298028DE991E090939F0280939E028C
:100AD00090918E02963108F047C02DEB30E03093B4
:100AE0009902209398022BE931E030939B022093E6
:100AF0009A022CE231E030939D0220939C022091D7
:100B0000680084E0983048F031E09E3008F430E02E
:100B100081E001C0880F3A95EAF7822B8093680044
:100B20002DE630E0983050F02BE630E09E3030F08B
:100B30002CE630E0963110F030E020E03093960261
:100B400020939502292F30E0983008F003C181E00E
:100B500001C0880F9A95EAF78093970280919E02D0
:100B600090919F020197F1F780919C0290919D02D4
:100B7000892B49F1E091E301F091E40182E0E23850
:100B8000F80709F1309739F0A389B4899C918589D8
:100B9000809589238C938091A0028E7F8093A00200
:100BA0001092E2011092E10182E892E09093E40158
:100BB0008093E301E0919502F091960280819091FB
:100BC0009702892B8083E091F501F091F60182E094
:100BD0008083E091F101F091F2011082E091F30144
:100BE000F091F4018FEC80831092FD01E091F90106
:100BF000F091FA0186E08083E091F701F091F8012D
:100C0000808180618083E091F701F091F80180811B
:100C100088608083E091F701F091F801808180681D
:100C20008083E091F701F091F80180818F7D8083CE
:100C300068EE73E080E090E00E941902C4E7D0E023
:100C400000EB10E09CE9E92E90E0F92E20E0C22EA6
:100C500020E0D22EFE018491F801A490F701B49017
:100C6000BB2009F45CC081110E949A01EB2DF0E0D9
:100C7000EE0FFF1FEA57FF4FA591B4918C91A82268
:100C800009F44DC087E291E00E940B0368EC70E02C
:100C900080E090E00E94190286E491E00E940B033C
:100CA00065E571E082E892E00E94FC0264E670E093
:100CB00080E090E00E94190260E671E082E892E034
:100CC0000E94FC0264EF71E080E090E00E94190253
:100CD00069E771E082E892E00E94FC0264EF71E053
:100CE00080E090E00E9419026AE182E892E00E94AE
:100CF000640264EF71E080E090E00E94190264E217
:100D000071E082E892E00E94FC028CE891E00E948F
:100D10000B0364EF71E080E090E00E94190282E82A
:100D200092E00E94C002892B49F082E892E00E9482
:100D3000D802682F85EE91E00E942D01C114D104E4
:100D400009F488CF0E94F700882309F483CF0E941A
:100D5000000080CF9E3040F42850310981E001C06E
:100D6000880F2A95EAF7F8CE2E503109F7CF86E1A1
:100D700091E090938302809382028091E3019091AD
:100D8000E4018258924071F4E0919502F09196024C
:100D90009081809197028095892380831092E4014D
:100DA0001092E301089597FB072E16F4009407D0E4
:100DB00077FD09D00E94E70607FC05D03EF4909528
:100DC00081959F4F0895709561957F4F0895AA1B57
:100DD000BB1B51E107C0AA1FBB1FA617B70710F026
:100DE000A61BB70B881F991F5A95A9F78095909558
:100DF000BC01CD010895EE0FFF1F0590F491E02D89
:100E0000099410E0C2E6D0E004C0FE010E94FB0697
:100E10002196C336D107C9F7F894FFCF0000000030
:100E20002D018D00BA007A01EB00C900DD00000041
:100E3000000064028D00F9026302C002D8024B0276
:100E40000D0A0049276D20696E2044616E67657246
:100E5000202C20436F6D6520486F6D652041534104
:100E6000500053656E64696E6720534D532E2E2ECD
:100E70000041542B434D47463D310D0041542B4317
:100E80004D47533D222B39313934383231353234E4
:100E90003437220D0053494D3830306C20697320AF
:100EA000776F726B696E6700546578742053656E56
:040EB000742E00009C
:107E0000112484B714BE81FFF0D085E080938100F7
:107E100082E08093C00088E18093C10086E0809377
:107E2000C20080E18093C4008EE0C9D0259A86E02C
:107E300020E33CEF91E0309385002093840096BBD3
:107E4000B09BFECF1D9AA8958150A9F7CC24DD24C4
:107E500088248394B5E0AB2EA1E19A2EF3E0BF2EE7
:107E6000A2D0813461F49FD0082FAFD0023811F036
:107E7000013811F484E001C083E08DD089C08234E0
:107E800011F484E103C0853419F485E0A6D080C0E4
:107E9000853579F488D0E82EFF2485D0082F10E0AE
:107EA000102F00270E291F29000F111F8ED06801E7
:107EB0006FC0863521F484E090D080E0DECF843638
:107EC00009F040C070D06FD0082F6DD080E0C81688
:107ED00080E7D80618F4F601B7BEE895C0E0D1E017
:107EE00062D089930C17E1F7F0E0CF16F0E7DF06D8
:107EF00018F0F601B7BEE89568D007B600FCFDCFD4
:107F0000A601A0E0B1E02C9130E011968C91119780
:107F100090E0982F8827822B932B1296FA010C0160
:107F200087BEE89511244E5F5F4FF1E0A038BF0790
:107F300051F7F601A7BEE89507B600FCFDCF97BE46
:107F4000E89526C08437B1F42ED02DD0F82E2BD052
:107F50003CD0F601EF2C8F010F5F1F4F84911BD097
:107F6000EA94F801C1F70894C11CD11CFA94CF0C13
:107F7000D11C0EC0853739F428D08EE10CD085E9AC
:107F80000AD08FE07ACF813511F488E018D01DD067
:107F900080E101D065CF982F8091C00085FFFCCF94
:107FA0009093C60008958091C00087FFFCCF809118
:107FB000C00084FD01C0A8958091C6000895E0E648
:107FC000F0E098E1908380830895EDDF803219F02E
:107FD00088E0F5DFFFCF84E1DECF1F93182FE3DFCA
:107FE0001150E9F7F2DF1F91089580E0E8DFEE27F6
:047FF000FF270994CA
:027FFE00040479
:00000001FF
