:100000000C9463000C948B000C948B000C948B006C
:100010000C948B000C948B000C948B000C948B0034
:100020000C948B000C948B000C948B000C948B0024
:100030000C948B000C948B000C948B000C948B0014
:100040000C947A050C948B000C9448050C942205B2
:100050000C948B000C948B000C948B000C948B00F4
:100060000C948B000C948B000000000024002700EF
:100070002A0000000000250028002B0000000008D6
:10008000000201000003040700000000000000005F
:1000900000000000230026002900040404040404D6
:1000A0000404020202020202030303030303010227
:1000B00004081020408001020408102001020408F6
:1000C000102009061D0811241FBECFEFD8E0DEBFA7
:1000D000CDBF22E0A8E0B2E001C01D92A83BB2076C
:1000E000E1F712E0A0E0B1E0EEE2F7E102C0059036
:1000F0000D92A830B107D9F710E0C2E6D0E004C0F5
:100100002197FE010E948909C136D107C9F70E94D3
:1001100044060C948A0B0C9400000895AF92BF9291
:10012000CF92DF92EF92FF920F931F93CF93DF93C3
:100130006C017B018B01040F151FEB015E01AE18F2
:10014000BF08C017D10759F06991D601ED91FC9114
:100150000190F081E02DC6010995892B79F7C50141
:10016000DF91CF911F910F91FF90EF90DF90CF9093
:10017000BF90AF900895FC01538D448D252F30E042
:10018000842F90E0821B930B541710F0CF960895A4
:1001900001970895FC01918D828D981761F0A28DD1
:1001A000AE0FBF2FB11D5D968C91928D9F5F9F7397
:1001B000928F90E008958FEF9FEF08952FB7F894F6
:1001C00080910D0290910E02A0910F02B091100249
:1001D0002FBF8093190290931A02A0931B02B09331
:1001E0001C0281E192E00E94CA0097FF26C02FB74F
:1001F000F89480910D0290910E02A0910F02B0919F
:1002000010022FBF4091190250911A0260911B02F7
:1002100070911C02841B950BA60BB70B4091150225
:100220005091160260911702709118028417950779
:10023000A607B707B0F28FEF9FEF0895FC01918DED
:10024000828D981731F0828DE80FF11D858D90E039
:1002500008958FEF9FEF0895FC01918D228D892FD6
:1002600090E0805C9F4F821B91098F7399270895BE
:1002700081E192E00E942C0121E0892B09F420E029
:10028000822F089580E090E0892B29F00E943801A8
:1002900081110C9400000895FC01A48DA80FB92FC2
:1002A000B11DA35ABF4F2C91848D90E001968F739E
:1002B0009927848FA689B7892C93A089B1898C91BD
:1002C000837080648C93938D848D981306C002880C
:1002D000F389E02D80818F7D80830895EF92FF92D6
:1002E0000F931F93CF93DF93EC0181E0888F9B8D59
:1002F0008C8D98131AC0E889F989808185FF15C013
:100300009FB7F894EE89FF896083E889F989808135
:100310008370806480839FBF81E090E0DF91CF9104
:100320001F910F91FF90EF900895F62E0B8D10E026
:100330000F5F1F4F0F731127E02E8C8D8E110CC095
:100340000FB607FCFACFE889F989808185FFF5CFE0
:10035000CE010E944C01F1CFEB8DEC0FFD2FF11D72
:10036000E35AFF4FF0829FB7F8940B8FEA89FB891D
:1003700080818062CFCFCF93DF93EC01888D88237B
:10038000B9F0AA89BB89E889F9898C9185FD03C0F8
:10039000808186FD0DC00FB607FCF7CF8C9185FFDD
:1003A000F2CF808185FFEDCFCE010E944C01E9CFD5
:1003B000DF91CF91089590E0FC01E458FF4F249124
:1003C000FC01E255FF4F3491FC01E656FF4FE491EA
:1003D000EE23C9F0222339F0233001F1A8F42130B3
:1003E00019F1223029F1F0E0EE0FFF1FEE58FF4F18
:1003F000A591B4918FB7F894EC91611126C0309516
:100400003E233C938FBF08952730A9F02830C9F0D0
:10041000243049F7809180008F7D03C08091800057
:100420008F7780938000DFCF84B58F7784BDDBCF5B
:1004300084B58F7DFBCF8091B0008F778093B00023
:10044000D2CF8091B0008F7DF9CF3E2BDACFCF9302
:10045000DF9390E0FC01E255FF4F249186569F4FB9
:10046000FC0184918823D1F090E0880F991FFC0152
:10047000E859FF4FA591B491FC01EE58FF4FC5918B
:10048000D49161110EC09FB7F8948C91E22FE09542
:100490008E238C932881E223E8839FBFDF91CF9145
:1004A00008958FB7F894EC91E22BEC938FBFF6CFC1
:1004B0003FB7F8948091090290910A02A0910B0233
:1004C000B0910C0226B5A89B05C02F3F19F00196EC
:1004D000A11DB11D3FBFBA2FA92F982F8827BC019E
:1004E000CD01620F711D811D911D42E0660F771FC6
:1004F000881F991F4A95D1F708958F929F92AF92C6
:10050000BF92CF92DF92EF92FF926B017C010E942B
:1005100058024B015C01C114D104E104F104B9F0AB
:100520000E945802681979098A099B09683E73403C
:100530008105910580F321E0C21AD108E108F10894
:1005400088EE880E83E0981EA11CB11CE4CFFF90BA
:10055000EF90DF90CF90BF90AF909F908F900895D5
:1005600060E082E00E94DB0160E083E00E94DB014A
:1005700060E084E00E94DB0160E085E00E94DB0136
:1005800060E087E00C94DB0160E082E00E94DB0128
:1005900061E083E00E94DB0160E084E00E94DB0117
:1005A00061E085E00E94DB0168E572E080E090E0B8
:1005B0000E947D020C94B00260E082E00E94DB01A8
:1005C00061E083E00E94DB0161E084E00E94DB01E6
:1005D00060E085E00E94DB0167EB72E080E090E084
:1005E0000E947D020C94B00261E082E00E94DB0177
:1005F00060E083E00E94DB0160E084E00E94DB01B8
:1006000061E085E00E94DB0160E872E080E090E05C
:100610000E947D020C94B002CF93DF93FC01019005
:100620000020E9F73197AF01481B590BBC0181E16C
:1006300092E00E948E00EC0142E050E068E171E03F
:1006400081E192E00E948E008C0F9D1FDF91CF917F
:1006500008950F931F93EAEBF0E06491E6EAF0E06F
:10066000E491F0E0EE0FFF1FE057FF4F859194916A
:1006700000E412E42FE030E0462F0E94C40561152B
:1006800071058105910529F06F5F7F4F8F4F9F4F57
:100690009F701F910F910895C3E0D0E003E210E036
:1006A00060E08BE00E94DB01CE010197F1F761E091
:1006B0008BE00E94DB01C8010197F1F760E08BE05D
:1006C0000E94DB010E9429030E94230826E933E4EB
:1006D0004BE05DE30E945E0820E030E040E05FE335
:1006E0000E945E080E945309653171050CF0A7C095
:1006F0000E94B00268EE73E080E090E00E947D020C
:1007000060E087E00E94DB0160E273E080E090E05F
:100710000E947D0261E087E00E94DB0168EC70E0EE
:1007200080E090E00E947D020E94F40268E572E0A1
:1007300080E090E00E947D020E94C40266E970E0C1
:1007400080E090E00E947D020E94B00268EE73E0BB
:1007500080E090E00E947D020E94F40268E572E071
:1007600080E090E00E947D0260E08BE00E94DB016F
:10077000CE010197F1F761E08BE00E94DB01C80137
:100780000197F1F760E08BE00E94DB010E942903F2
:100790000E94230826E933E44BE05DE30E945E08F3
:1007A00020E030E040E05FE30E945E080E945309D1
:1007B00065317105ECF50E94B00268EE73E080E0EF
:1007C00090E00E947D0260E087E00E94DB0160E231
:1007D00073E080E090E00E947D0261E087E00E948B
:1007E000DB0168EC70E080E090E00E947D020E94F6
:1007F000DC0268E572E080E090E00E947D020E94E9
:10080000C40266E970E080E090E00E947D020E94F0
:10081000B00268EE73E080E090E00E947D020E94EA
:10082000DC0268E572E080E090E00E947D0238CF53
:100830000E94C40264E670E080E090E093CF0E94E2
:10084000C40264E670E080E090E0EFCF2091B20255
:100850003091B302232B39F421E0FC0180818823FD
:1008600061F020E00AC0BC018091AE029091AF021D
:100870000E947A0B21E0892BA1F7822F0895CF9354
:10088000DF93EC018091AE029091AF020097E9F006
:100890006881798161157105B1F04091B002509184
:1008A000B1022C813D814217530768F00E94830BEF
:1008B0008C819D819093B3028093B2021D821C8231
:1008C000DF91CF9108950E942B0A8881998190939E
:1008D000AF028093AE028A819B819093B102809394
:1008E000B0028C819D819093B3028093B2021982F1
:1008F00018821B821A82E2CFFC01808191810097CD
:1009000011F00C942B0A08950F931F93CF93DF934C
:10091000EC0188819981009759F02A813B81261743
:10092000370730F081E0DF91CF911F910F9108954B
:100930008B016F5F7F4F0E94B40A009759F0998333
:1009400088831B830A832C813D81232B59F7FC016B
:100950001082E8CF80E0E7CFEF92FF920F931F93D2
:10096000CF93DF93EC017B018A01BA010E948404DA
:1009700028813981811114C02115310519F0C9016F
:100980000E942B0A198218821D821C821B821A82E5
:10099000CE01DF91CF911F910F91FF90EF900895BD
:1009A0001D830C83B701C9010E94830BF1CFEF9225
:1009B000FF920F931F93CF93DF9300D0CDB7DEB795
:1009C0008C01FC0111821082138212821582148222
:1009D00050E040E06AE171E00E94AC040E94DE0059
:1009E00097FD1EC089831A82F801E480F580FFEF2D
:1009F000EF1AFF0AB701C8010E948404882371F32B
:100A0000F8012081318184819581BE016F5F7F4F24
:100A1000820F931F0E94830BF801F582E482DECFE0
:100A2000C8010F900F90DF91CF911F910F91FF9010
:100A3000EF90089541E050E06BE171E08EEA92E0C2
:100A40000C94AC041F920F920FB60F9211242F93A7
:100A50003F934F935F936F937F938F939F93AF9346
:100A6000BF93EF93FF9381E192E00E944C01FF91CD
:100A7000EF91BF91AF919F918F917F916F915F9116
:100A80004F913F912F910F900FBE0F901F9018958F
:100A90001F920F920FB60F9211242F938F939F9353
:100AA000EF93FF93E0912102F09122028081E09187
:100AB0002702F091280282FD1BC0908180912A02BA
:100AC0008F5F8F7320912B02821741F0E0912A02F1
:100AD000F0E0EF5EFD4F958F80932A02FF91EF913A
:100AE0009F918F912F910F900FBE0F901F9018958F
:100AF0008081F4CF1F920F920FB60F9211242F9383
:100B00003F938F939F93AF93BF9380910D029091EA
:100B10000E02A0910F02B09110023091080223E062
:100B2000230F2D3758F50196A11DB11D2093080202
:100B300080930D0290930E02A0930F02B0931002C7
:100B40008091090290910A02A0910B02B0910C02CF
:100B50000196A11DB11D8093090290930A02A093F2
:100B60000B02B0930C02BF91AF919F918F913F9177
:100B70002F910F900FBE0F901F90189526E8230F0E
:100B80000296A11DB11DD2CFCF92DF92EF92FF92BC
:100B90000F931F93E82FF92F05C001501109210968
:100BA000310961F1908196239417B9F305C0015082
:100BB00011092109310911F1908196239413F7CF7E
:100BC000C12CD12CE12CF12C0AC08FEFC81AD80A05
:100BD000E80AF80A0C151D052E053F0579F08081FD
:100BE0008623841791F36C2D7D2D8E2D9F2D1F91C3
:100BF0000F91FF90EF90DF90CF90089560E070E04C
:100C000080E090E01F910F91FF90EF90DF90CF90E8
:100C10000895E1E1F2E01382128288EE93E0A0E011
:100C2000B0E084839583A683B7838AE091E09183C3
:100C3000808385EC90E09587848784EC90E09787AB
:100C4000868780EC90E0918B808B81EC90E0938B99
:100C5000828B82EC90E0958B848B86EC90E0978B76
:100C6000868B118E128E138E148EEEEAF2E01182B4
:100C70001082138212821582148250E040E06AE1F1
:100C800071E0CF010C94AC04CF93DF9300D000D07F
:100C900000D0CDB7DEB7789484B5826084BD84B5CA
:100CA000816084BD85B5826085BD85B5816085BD67
:100CB00080916E00816080936E001092810080911F
:100CC00081008260809381008091810081608093A7
:100CD0008100809180008160809380008091B100CC
:100CE00084608093B1008091B00081608093B000F7
:100CF00080917A00846080937A0080917A0082608B
:100D000080937A0080917A00816080937A0080914C
:100D10007A00806880937A001092C100E0912102ED
:100D2000F091220282E08083E0911D02F0911E0288
:100D30001082E0911F02F09120028FEC80831092CC
:100D40002902E0912502F091260286E08083E0915D
:100D50002302F0912402808180618083E09123024C
:100D6000F0912402808188608083E0912302F091D9
:100D70002402808180688083E0912302F091240224
:100D800080818F7D808361E08BE00E94270260E09C
:100D90008CE00E94270261E082E00E94270261E06D
:100DA00083E00E94270261E084E00E94270261E064
:100DB00085E00E94270261E087E00E94270261E04F
:100DC00087E00E94DB0168EC70E080E090E00E9428
:100DD0007D0261E087E00E94DB0181E192E00E94F8
:100DE0002C011816190664F4CE0101960E94D7044E
:100DF000CE0101960E943F04CE0101960E947C0420
:100E000081E192E00E942C011816190664F4CE01CB
:100E100001960E94D704CE0101960E943F04CE01A4
:100E200001960E947C048DE191E00E9426048111CC
:100E300007C084E291E00E942604882309F4E1C0FF
:100E40008BE291E00E940C0368EE73E080E090E09A
:100E50000E947D0281E192E00E942C011816190681
:100E600064F4CE0101960E94D704CE0101960E943F
:100E70003F04CE0101960E947C048DE391E00E9424
:100E80002604811112C08FE391E00E942604811193
:100E90000CC084E591E00E942604811106C081E423
:100EA00091E00E942604882349F089E491E00E94A1
:100EB0000C030E94C4020E941A05CCCF8CE591E07D
:100EC0000E94260481116DC08EE591E00E942604E7
:100ED000811167C085E791E00E942604811161C0FD
:100EE00080E691E00E94260481115BC088E691E0D3
:100EF0000E942604811172C08DE791E00E942604B1
:100F000081116CC08FE891E00E942604811166C0B7
:100F10008FE791E00E942604811160C08AE591E08C
:100F20000E942604811161C084E991E00E94260498
:100F300081115BC089EA91E00E942604811155C0AD
:100F400086E991E00E94260481114FC08CE991E06E
:100F50000E942604811150C08FEA91E00E9426046D
:100F600081114AC08BEC91E00E942604811144C09B
:100F700081EB91E00E94260481113EC086EB91E056
:100F80000E942604811107C080ED91E00E94260492
:100F9000882309F45FCF8AED91E00E940C030E9440
:100FA0004C038AE691E00E940C0361E082E00E941B
:100FB000DB0160E083E00E94DB0161E084E00E94ED
:100FC000DB0160E085E00E94DB0168E572E080E023
:100FD00090E00E947D020E94B0026DCF84E891E013
:100FE0000E940C030E94F40266CF8EE991E00E94F9
:100FF0000C030E94DC025FCF80EC91E00E940C03A6
:10100000EACF86EB91E00E942604811107C080EDB3
:1010100091E00E942604882309F4F2CE8EED91E03F
:101020000E940C0380EF91E00E940C0368EE73E0D5
:1010300080E090E00E947D02B2CF8EEA92E00C94B4
:101040007C04E89409C097FB3EF4909580957095D8
:1010500061957F4F8F4F9F4F9923A9F0F92F96E904
:10106000BB279395F695879577956795B795F11179
:10107000F8CFFAF4BB0F11F460FF1BC06F5F7F4F16
:101080008F4F9F4F16C0882311F096E911C0772328
:1010900021F09EE8872F762F05C0662371F096E831
:1010A000862F70E060E02AF09A95660F771F881F00
:1010B000DAF7880F9695879597F908950E94710839
:1010C0000C94E2080E94D40838F00E94DB0820F05B
:1010D000952311F00C94CB080C94D10811240C9496
:1010E00016090E94F30870F3959FC1F3950F50E025
:1010F000551F629FF001729FBB27F00DB11D639FCA
:10110000AA27F00DB11DAA1F649F6627B00DA11D6F
:10111000661F829F2227B00DA11D621F739FB00D15
:10112000A11D621F839FA00D611D221F749F332785
:10113000A00D611D231F849F600D211D822F762F1E
:101140006A2F11249F5750409AF0F1F088234AF0FB
:10115000EE0FFF1FBB1F661F771F881F9150504067
:10116000A9F79E3F510580F00C94CB080C9416090A
:101170005F3FE4F3983ED4F3869577956795B795EE
:10118000F795E7959F5FC1F7FE2B880F911D969508
:10119000879597F9089597F99F6780E870E060E078
:1011A00008959FEF80EC089500240A941616170600
:1011B00018060906089500240A9412161306140648
:1011C00005060895092E0394000C11F4882352F0AB
:1011D000BB0F40F4BF2B11F460FF04C06F5F7F4F63
:1011E0008F4F9F4F089557FD9058440F551F59F04A
:1011F0005F3F71F04795880F97FB991F61F09F3F04
:1012000079F087950895121613061406551FF2CF2C
:101210004695F1DF08C0161617061806991FF1CF7C
:1012200086957105610508940895E894BB276627A3
:101230007727CB0197F908952F923F924F925F92B3
:101240006F927F928F929F92AF92BF92CF92DF92D6
:10125000EF92FF920F931F93CF93DF93CDB7DEB73B
:10126000CA1BDB0B0FB6F894DEBF0FBECDBF0994CF
:101270002A88398848885F846E847D848C849B8426
:10128000AA84B984C884DF80EE80FD800C811B8134
:10129000AA81B981CE0FD11D0FB6F894DEBF0FBE63
:1012A000CDBFED0108950E945A096894B1110C94C4
:1012B000160908950E94FB0888F09F5798F0B92FEF
:1012C0009927B751B0F0E1F0660F771F881F991F7B
:1012D0001AF0BA95C9F714C0B13091F00E941509FF
:1012E000B1E008950C941509672F782F8827B85F0F
:1012F00039F0B93FCCF3869577956795B395D9F7D3
:101300003EF490958095709561957F4F8F4F9F4FDC
:101310000895EE0FFF1F0590F491E02D09940F93AF
:101320001F93CF93DF938230910510F482E090E019
:10133000E091B602F091B70230E020E0B0E0A0E02A
:10134000309799F42115310509F44AC0281B390B4F
:1013500024303105D8F58A819B816115710589F1A9
:10136000FB0193838283FE0111C040815181028180
:10137000138148175907E0F04817590799F4109757
:1013800061F012960C93129713961C933296CF012C
:10139000DF91CF911F910F9108950093B6021093A2
:1013A000B702F4CF2115310551F04217530738F039
:1013B000A901DB019A01BD01DF01F801C1CFEF01F5
:1013C000F9CF9093B7028093B602CDCFFE01E20F22
:1013D000F31F819391932250310939832883D7CF0A
:1013E0002091B4023091B502232B41F420910201E7
:1013F000309103013093B5022093B4022091000193
:10140000309101012115310541F42DB73EB74091CE
:10141000040150910501241B350BE091B402F091B9
:10142000B502E217F307A0F42E1B3F0B281739076C
:1014300078F0AC014E5F5F4F2417350748F04E0F30
:101440005F1F5093B5024093B402819391939FCF55
:10145000F0E0E0E09CCFCF93DF930097E9F0FC0150
:10146000329713821282A091B602B091B702ED01B9
:1014700030E020E01097A1F420813181820F931F8A
:101480002091B4023091B5022817390709F061C0E4
:10149000F093B502E093B402DF91CF910895EA0191
:1014A000CE17DF07E8F54A815B819E0141155105A2
:1014B000B1F7E901FB83EA8349915991C40FD51F24
:1014C000EC17FD0761F4808191810296840F951FCE
:1014D000E90199838883828193819B838A83F0E0E9
:1014E000E0E012968D919C9113970097B9F52D919C
:1014F0003C911197CD010296820F931F2091B40267
:101500003091B5022817390739F6309751F5109206
:10151000B7021092B602B093B502A093B402BCCF4A
:10152000D383C28340815181840F951FC817D90787
:1015300061F44E5F5F4F88819981480F591F518335
:1015400040838A819B81938382832115310509F031
:10155000B0CFF093B702E093B6029ECFFD01DC015D
:10156000C0CF13821282D7CFB0E0A0E0EAEBFAE05E
:101570000C941E098C01009751F4CB010E948F0935
:101580008C01C801CDB7DEB7E0E10C943A09FC014B
:10159000E60FF71F9C0122503109E217F30708F408
:1015A0009DC0D901CD91DC911197C617D70798F04E
:1015B000C530D10530F3CE0104978617970708F39D
:1015C000C61BD70B2297C193D1936D937C93CF0108
:1015D0000E942B0AD6CF5B01AC1ABD0A4C018C0EBF
:1015E0009D1EA091B602B091B702512C412CF12C56
:1015F000E12C109731F58091B4029091B5028815D5
:10160000990509F05CC04616570608F058C080914D
:10161000000190910101009741F48DB79EB7409170
:10162000040150910501841B950BE817F90708F098
:1016300055C0F093B502E093B402F9017183608361
:10164000A0CF8D919C91119712966C901297139642
:101650007C901397A815B90559F56C0142E0C40EAA
:10166000D11CCA14DB0420F1AC014A195B09DA0170
:101670001296159780F06282738251834083D9015C
:101680006D937C93E114F10471F0D7011396FC93F0
:10169000EE93129776CF22968C0F9D1FF9019183BE
:1016A0008083F301EFCFF093B702E093B60269CFE6
:1016B0004816590608F42C017D01D3019ACFCB01BD
:1016C0000E948F097C01009749F0AE01B8010E9489
:1016D000710BC8010E942B0A870153CF10E000E074
:1016E00050CFFB01DC0102C001900D9241505040EF
:1016F000D8F70895FB01DC018D910190801901104C
:10170000D9F3990B0895FB01DC0101900D920020A3
:10171000E1F7089510E0C2E6D0E004C0FE010E94A7
:0E17200089092196C336D107C9F7F894FFCF87
:10172E000000B8028000000000006E018E00BB00B9
:10173E00BB012C01CA001E010D0A0030006D616E46
:10174E0075616C004D616E75616C00090909204D63
:10175E00616E75616C204D4F4445203A00770057FD
:10176E0000666F72776172640009090909202020F2
:10177E0020202020466F7277617264007300530040
:10178E00726576657273650061000909090920208A
:10179E002020202020526576657273650041006C12
:1017AE006566740009090909202020202020204C9C
:1017BE0065667400440072696768740071000909F7
:1017CE0009092020202020202052696768740051CA
:1017DE000073746F70006175746F6D61746963006E
:1017EE00090909092020202020202053746F700041
:1017FE004175746F6D61746963000A0A0A0A0909FA
:10180E0009204175746F204D4F44452020203A0029
:10181E000909090909204D4F5050494E47204D4F97
:08182E0044452020203A00008F
:00000001FF
