:020000040000FA
:100000000C9462000C948A000C948A000C948A0070
:100010000C948A000C948A000C948A000C948A0038
:100020000C948A000C948A000C948A000C948A0028
:100030000C948A000C948A000C948A000C948A0018
:100040000C949C030C948A000C946A030C94440353
:100050000C948A000C948A000C948A000C948A00F8
:100060000C948A000C948A000000000024002700F1
:100070002A000000000023002600290000000000E4
:10008000250028002B0004040404040404040202D4
:100090000202020203030303030301020408102007
:1000A0004080010204081020010204081020000012
:1000B0000008000201000003040700000000000027
:1000C0000000890411241FBECFEFD8E0DEBFCDBFF2
:1000D00011E0A0E0B1E0ECE7F9E002C005900D927C
:1000E000AC3BB107D9F722E0ACEBB1E001C01D9207
:1000F000A236B207E1F710E0C2E6D0E004C02197D3
:10010000FE010E94B604C136D107C9F70E94E6037A
:100110000C94BC040C940000AF92BF92CF92DF927B
:10012000EF92FF920F931F93CF93DF936C017B01AC
:100130008B01040F151FEB015E01AE18BF08C0173D
:10014000D10759F06991D601ED91FC910190F081B0
:10015000E02DC6010995892B79F7C501DF91CF9173
:100160001F910F91FF90EF90DF90CF90BF90AF90D5
:100170000895FC01538D448D252F30E0842F90E0AD
:10018000821B930B541710F0CF9608950197089592
:10019000FC01918D828D981761F0A28DAE0FBF2F5B
:1001A000B11D5D968C91928D9F5F9F73928F90E0B1
:1001B00008958FEF9FEF0895FC01918D828D981720
:1001C00031F0828DE80FF11D858D90E008958FEF5D
:1001D0009FEF0895FC01918D228D892F90E0805C26
:1001E0009F4F821B91098F739927089585EC91E0A9
:1001F0000E94EA0021E0892B09F420E0822F089573
:1002000080E090E0892B29F00E94F60081110C9487
:1002100000000895FC01A48DA80FB92FB11DA35AA9
:10022000BF4F2C91848D90E001968F739927848F16
:10023000A689B7892C93A089B1898C918370806439
:100240008C93938D848D981306C00288F389E02DDA
:1002500080818F7D80830895EF92FF920F931F938B
:10026000CF93DF93EC0181E0888F9B8D8C8D981369
:100270001AC0E889F989808185FF15C09FB7F89475
:10028000EE89FF896083E889F989808183708064C1
:1002900080839FBF81E090E0DF91CF911F910F910C
:1002A000FF90EF900895F62E0B8D10E00F5F1F4F1B
:1002B0000F731127E02E8C8D8E110CC00FB607FC2A
:1002C000FACFE889F989808185FFF5CFCE010E94B8
:1002D0000A01F1CFEB8DEC0FFD2FF11DE35AFF4F1B
:1002E000F0829FB7F8940B8FEA89FB898081806246
:1002F000CFCFCF93DF93EC01888D8823B9F0AA8903
:10030000BB89E889F9898C9185FD03C0808186FDD0
:100310000DC00FB607FCF7CF8C9185FFF2CF80811F
:1003200085FFEDCFCE010E940A01E9CFDF91CF9189
:100330000895833081F028F4813099F08230A9F05B
:1003400008958730A9F08830C9F08430B1F48091E5
:1003500080008F7D03C0809180008F778093800024
:10036000089584B58F7784BD089584B58F7DFBCFC4
:100370008091B0008F778093B00008958091B00095
:100380008F7DF9CF1F93CF93DF93E5EBF0E094914E
:10039000E1EAF0E0D491EDE8F0E0C491CC23B9F0CB
:1003A000182F992319F0892F0E949901EC2FF0E062
:1003B000EE0FFF1FE458FF4FA591B4918FB7F8944B
:1003C000EC91111108C0D095DE23DC938FBFDF9133
:1003D000CF911F910895DE2BF8CFCF93DF93282F75
:1003E00030E0F901E255FF4F8491F901E656FF4FE5
:1003F000D491F901EA57FF4FC491CC23A1F08111A8
:100400000E949901EC2FF0E0EE0FFF1FEE58FF4F16
:10041000A591B491EC91ED2381E090E009F480E0A6
:10042000DF91CF91089580E090E0FACFCF93DF93F2
:1004300090E0FC01E656FF4F24918A579F4FFC0144
:1004400084918823D1F090E0880F991FFC01E8592E
:10045000FF4FA591B491FC01E458FF4FC591D49191
:1004600061110EC09FB7F8948C91E22FE0958E2316
:100470008C932881E223E8839FBFDF91CF91089579
:100480008FB7F894EC91E22BEC938FBFF6CF3FB788
:10049000F8948091C1019091C201A091C301B091E3
:1004A000C40126B5A89B05C02F3F19F00196A11DD8
:1004B000B11D3FBFBA2FA92F982F8827BC01CD01AE
:1004C000620F711D811D911D42E0660F771F881F0D
:1004D000991F4A95D1F708958F929F92AF92BF923C
:1004E000CF92DF92EF92FF924B015C010E94470294
:1004F0006B017C010E9447026C197D098E099F09DE
:10050000683E734081059105A8F321E0821A9108A5
:10051000A108B10888EEC80E83E0D81EE11CF11CCA
:1005200081149104A104B10429F7FF90EF90DF90AA
:10053000CF90BF90AF909F908F900895CF93DF930F
:10054000FC0101900020E9F73197AF01481B590BDE
:10055000BC0185EC91E00E948C00EC0142E050E08F
:1005600062E171E085EC91E00E948C008C0F9D1F90
:10057000DF91CF91089589E00E94ED01019791F4F8
:1005800085E191E00E949E0268EE73E080E090E0D9
:100590000E946C020E94220368EE73E080E090E00B
:1005A0000C946C028FE291E00E949E02F5CF82E0F3
:1005B0000E94ED010197F1F58BE491E00E949E020B
:1005C00060ED77E080E090E00E946C0283E00E94A2
:1005D000ED01019761F58AE591E00E949E0284E0B9
:1005E0000E94ED01019781F489E691E00E949E024C
:1005F00080E00E94C20160ED77E080E090E00E9420
:100600006C020E94BB02FDCF84E00E94ED01892BA9
:1006100031F788E791E00E949E0281E00E94C201CA
:1006200060ED77E080E090E00E946C02D8CF8DE82A
:1006300091E0C4CF60ED77E080E090E00E946C0232
:100640000C94220385E00E94ED01019751F48CE99E
:1006500091E00E949E0268EE73E080E090E00E94CC
:100660006C020E94D70286E00E94ED01019751F4CE
:1006700088EA91E00E949E0268EE73E080E090E0DC
:100680000C946C020C94D7021F920F920FB60F922B
:1006900011242F933F934F935F936F937F938F9387
:1006A0009F93AF93BF93EF93FF9385EC91E00E94EC
:1006B0000A01FF91EF91BF91AF919F918F917F912F
:1006C0006F915F914F913F912F910F900FBE0F90BF
:1006D0001F9018951F920F920FB60F9211242F930F
:1006E0008F939F93EF93FF93E091D501F091D60103
:1006F0008081E091DB01F091DC0182FD1BC09081E3
:100700008091DE018F5F8F732091DF01821741F0AE
:10071000E091DE01F0E0EB53FE4F958F8093DE0118
:10072000FF91EF919F918F912F910F900FBE0F909E
:100730001F9018958081F4CF1F920F920FB60F92E1
:1007400011242F933F938F939F93AF93BF938091E7
:10075000BD019091BE01A091BF01B091C001309147
:10076000BC0123E0230F2D3758F50196A11DB11DC3
:100770002093BC018093BD019093BE01A093BF0163
:10078000B093C0018091C1019091C201A091C301B9
:10079000B091C4010196A11DB11D8093C101909338
:1007A000C201A093C301B093C401BF91AF919F91C7
:1007B0008F913F912F910F900FBE0F901F90189522
:1007C00026E8230F0296A11DB11DD2CF789484B5DF
:1007D000826084BD84B5816084BD85B5826085BD3D
:1007E00085B5816085BD80916E00816080936E00CB
:1007F00010928100809181008260809381008091BD
:10080000810081608093810080918000816080936D
:1008100080008091B10084608093B1008091B0002D
:1008200081608093B00080917A00846080937A0028
:1008300080917A00826080937A0080917A00816052
:1008400080937A0080917A00806880937A00109279
:10085000C100E091D501F091D60182E08083E09162
:10086000D101F091D2011082E091D301F091D40135
:100870008FEC80831092DD01E091D901F091DA01D3
:1008800086E08083E091D701F091D801808180617A
:100890008083E091D701F091D801808188608083C6
:1008A000E091D701F091D801808180688083E09148
:1008B000D701F091D80180818F7D808360E082E054
:1008C0000E94160260E083E00E94160260E084E06D
:1008D0000E94160260E086E00E94160260E085E059
:1008E0000E94160261E087E00E941602C0E0D0E09C
:1008F0000E94BB0268EE73E080E090E00E946C0210
:100900002097B1F30E94F600882391F30E94000023
:10091000EFCFE5ECF1E01382128288EE93E0A0E0E5
:10092000B0E084839583A683B78384E091E09183CC
:10093000808385EC90E09587848784EC90E09787AE
:10094000868780EC90E0918B808B81EC90E0938B9C
:10095000828B82EC90E0958B848B86EC90E0978B79
:10096000868B118E128E138E148E0895EE0FFF1F3C
:100970000590F491E02D0994F894FFCF0000000059
:100980002C018C00B9007901EA00C800DC000D0AD6
:100990000053656375726974792053797374656D5A
:1009A0002041637469766174656400536563757290
:1009B0006974792053797374656D2044656163743B
:1009C000697661746564004C4556454C203120427F
:1009D0005245414348004C4556454C203220425236
:1009E00045414348004C4556454C20332042524532
:1009F0004143480052454420414C45525420212156
:100A0000212044414E474552005741524E494E47DE
:100A100020414C4541525400474153204C45414BE5
:100A200041474500464952452F534D4F4B452044C1
:080A30004554454354454400C0
:107E0000112484B714BE81FFF0D085E080938100F7
:107E100082E08093C00088E18093C10086E0809377
:107E2000C20080E18093C4008EE0C9D0259A86E02C
:107E300020E33CEF91E0309385002093840096BBD3
:107E4000B09BFECF1D9AA8958150A9F7CC24DD24C4
:107E500088248394B5E0AB2EA1E19A2EF3E0BF2EE7
:107E6000A2D0813461F49FD0082FAFD0023811F036
:107E7000013811F484E001C083E08DD089C08234E0
:107E800011F484E103C0853419F485E0A6D080C0E4
:107E9000853579F488D0E82EFF2485D0082F10E0AE
:107EA000102F00270E291F29000F111F8ED06801E7
:107EB0006FC0863521F484E090D080E0DECF843638
:107EC00009F040C070D06FD0082F6DD080E0C81688
:107ED00080E7D80618F4F601B7BEE895C0E0D1E017
:107EE00062D089930C17E1F7F0E0CF16F0E7DF06D8
:107EF00018F0F601B7BEE89568D007B600FCFDCFD4
:107F0000A601A0E0B1E02C9130E011968C91119780
:107F100090E0982F8827822B932B1296FA010C0160
:107F200087BEE89511244E5F5F4FF1E0A038BF0790
:107F300051F7F601A7BEE89507B600FCFDCF97BE46
:107F4000E89526C08437B1F42ED02DD0F82E2BD052
:107F50003CD0F601EF2C8F010F5F1F4F84911BD097
:107F6000EA94F801C1F70894C11CD11CFA94CF0C13
:107F7000D11C0EC0853739F428D08EE10CD085E9AC
:107F80000AD08FE07ACF813511F488E018D01DD067
:107F900080E101D065CF982F8091C00085FFFCCF94
:107FA0009093C60008958091C00087FFFCCF809118
:107FB000C00084FD01C0A8958091C6000895E0E648
:107FC000F0E098E1908380830895EDDF803219F02E
:107FD00088E0F5DFFFCF84E1DECF1F93182FE3DFCA
:107FE0001150E9F7F2DF1F91089580E0E8DFEE27F6
:047FF000FF270994CA
:027FFE00040479
:00000001FF
